{
  "contractName": "TestUniswap",
  "abi": [
    {
      "inputs": [
        {
          "internalType": "address",
          "name": "_tokenIn",
          "type": "address"
        },
        {
          "internalType": "address",
          "name": "_tokenOut",
          "type": "address"
        },
        {
          "internalType": "uint256",
          "name": "_amountIn",
          "type": "uint256"
        },
        {
          "internalType": "address",
          "name": "_to",
          "type": "address"
        }
      ],
      "name": "swap",
      "outputs": [],
      "stateMutability": "nonpayable",
      "type": "function"
    },
    {
      "inputs": [
        {
          "internalType": "address",
          "name": "_tokenIn",
          "type": "address"
        },
        {
          "internalType": "address",
          "name": "_tokenOut",
          "type": "address"
        },
        {
          "internalType": "uint256",
          "name": "_amountIn",
          "type": "uint256"
        }
      ],
      "name": "getAmountOutMin",
      "outputs": [
        {
          "internalType": "uint256",
          "name": "",
          "type": "uint256"
        }
      ],
      "stateMutability": "view",
      "type": "function"
    }
  ],
  "bytecode": "0x608060405234801561001057600080fd5b506111bb806100206000396000f3fe608060405234801561001057600080fd5b50600436106100365760003560e01c80633c50eec11461003b5780636e81221c1461006b575b600080fd5b61005560048036038101906100509190610d0c565b610087565b6040516100629190610f2b565b60405180910390f35b61008560048036038101906100809190610d5b565b610565565b005b6000606073c02aaa39b223fe8d0a0e5c4f27ead9083c756cc273ffffffffffffffffffffffffffffffffffffffff168573ffffffffffffffffffffffffffffffffffffffff161480610118575073c02aaa39b223fe8d0a0e5c4f27ead9083c756cc273ffffffffffffffffffffffffffffffffffffffff168473ffffffffffffffffffffffffffffffffffffffff16145b1561027e57600267ffffffffffffffff81111561015e577f4e487b7100000000000000000000000000000000000000000000000000000000600052604160045260246000fd5b60405190808252806020026020018201604052801561018c5781602001602082028036833780820191505090505b50905084816000815181106101ca577f4e487b7100000000000000000000000000000000000000000000000000000000600052603260045260246000fd5b602002602001019073ffffffffffffffffffffffffffffffffffffffff16908173ffffffffffffffffffffffffffffffffffffffff1681525050838160018151811061023f577f4e487b7100000000000000000000000000000000000000000000000000000000600052603260045260246000fd5b602002602001019073ffffffffffffffffffffffffffffffffffffffff16908173ffffffffffffffffffffffffffffffffffffffff1681525050610464565b600367ffffffffffffffff8111156102bf577f4e487b7100000000000000000000000000000000000000000000000000000000600052604160045260246000fd5b6040519080825280602002602001820160405280156102ed5781602001602082028036833780820191505090505b509050848160008151811061032b577f4e487b7100000000000000000000000000000000000000000000000000000000600052603260045260246000fd5b602002602001019073ffffffffffffffffffffffffffffffffffffffff16908173ffffffffffffffffffffffffffffffffffffffff168152505073c02aaa39b223fe8d0a0e5c4f27ead9083c756cc2816001815181106103b4577f4e487b7100000000000000000000000000000000000000000000000000000000600052603260045260246000fd5b602002602001019073ffffffffffffffffffffffffffffffffffffffff16908173ffffffffffffffffffffffffffffffffffffffff16815250508381600281518110610429577f4e487b7100000000000000000000000000000000000000000000000000000000600052603260045260246000fd5b602002602001019073ffffffffffffffffffffffffffffffffffffffff16908173ffffffffffffffffffffffffffffffffffffffff16815250505b6000737a250d5630b4cf539739df2c5dacb4c659f2488d73ffffffffffffffffffffffffffffffffffffffff1663d06ca61f85846040518363ffffffff1660e01b81526004016104b5929190610f46565b60006040518083038186803b1580156104cd57600080fd5b505afa1580156104e1573d6000803e3d6000fd5b505050506040513d6000823e3d601f19601f8201168201806040525081019061050a9190610dbe565b9050806001835161051b9190611066565b81518110610552577f4e487b7100000000000000000000000000000000000000000000000000000000600052603260045260246000fd5b6020026020010151925050509392505050565b8373ffffffffffffffffffffffffffffffffffffffff166323b872dd3330856040518463ffffffff1660e01b81526004016105a293929190610ecb565b602060405180830381600087803b1580156105bc57600080fd5b505af11580156105d0573d6000803e3d6000fd5b505050506040513d601f19601f820116820180604052508101906105f49190610dff565b508373ffffffffffffffffffffffffffffffffffffffff1663095ea7b3737a250d5630b4cf539739df2c5dacb4c659f2488d846040518363ffffffff1660e01b8152600401610644929190610f02565b602060405180830381600087803b15801561065e57600080fd5b505af1158015610672573d6000803e3d6000fd5b505050506040513d601f19601f820116820180604052508101906106969190610dff565b50606073c02aaa39b223fe8d0a0e5c4f27ead9083c756cc273ffffffffffffffffffffffffffffffffffffffff168573ffffffffffffffffffffffffffffffffffffffff161480610726575073c02aaa39b223fe8d0a0e5c4f27ead9083c756cc273ffffffffffffffffffffffffffffffffffffffff168473ffffffffffffffffffffffffffffffffffffffff16145b1561088c57600267ffffffffffffffff81111561076c577f4e487b7100000000000000000000000000000000000000000000000000000000600052604160045260246000fd5b60405190808252806020026020018201604052801561079a5781602001602082028036833780820191505090505b50905084816000815181106107d8577f4e487b7100000000000000000000000000000000000000000000000000000000600052603260045260246000fd5b602002602001019073ffffffffffffffffffffffffffffffffffffffff16908173ffffffffffffffffffffffffffffffffffffffff1681525050838160018151811061084d577f4e487b7100000000000000000000000000000000000000000000000000000000600052603260045260246000fd5b602002602001019073ffffffffffffffffffffffffffffffffffffffff16908173ffffffffffffffffffffffffffffffffffffffff1681525050610a72565b600367ffffffffffffffff8111156108cd577f4e487b7100000000000000000000000000000000000000000000000000000000600052604160045260246000fd5b6040519080825280602002602001820160405280156108fb5781602001602082028036833780820191505090505b5090508481600081518110610939577f4e487b7100000000000000000000000000000000000000000000000000000000600052603260045260246000fd5b602002602001019073ffffffffffffffffffffffffffffffffffffffff16908173ffffffffffffffffffffffffffffffffffffffff168152505073c02aaa39b223fe8d0a0e5c4f27ead9083c756cc2816001815181106109c2577f4e487b7100000000000000000000000000000000000000000000000000000000600052603260045260246000fd5b602002602001019073ffffffffffffffffffffffffffffffffffffffff16908173ffffffffffffffffffffffffffffffffffffffff16815250508381600281518110610a37577f4e487b7100000000000000000000000000000000000000000000000000000000600052603260045260246000fd5b602002602001019073ffffffffffffffffffffffffffffffffffffffff16908173ffffffffffffffffffffffffffffffffffffffff16815250505b6000737a250d5630b4cf539739df2c5dacb4c659f2488d73ffffffffffffffffffffffffffffffffffffffff1663d06ca61f85846040518363ffffffff1660e01b8152600401610ac3929190610f46565b60006040518083038186803b158015610adb57600080fd5b505afa158015610aef573d6000803e3d6000fd5b505050506040513d6000823e3d601f19601f82011682018060405250810190610b189190610dbe565b905060008160018451610b2b9190611066565b81518110610b62577f4e487b7100000000000000000000000000000000000000000000000000000000600052603260045260246000fd5b60200260200101519050737a250d5630b4cf539739df2c5dacb4c659f2488d73ffffffffffffffffffffffffffffffffffffffff166338ed173986838688426040518663ffffffff1660e01b8152600401610bc1959493929190610f76565b600060405180830381600087803b158015610bdb57600080fd5b505af1158015610bef573d6000803e3d6000fd5b505050506040513d6000823e3d601f19601f82011682018060405250810190610c189190610dbe565b5050505050505050565b6000610c35610c3084611001565b610fd0565b90508083825260208201905082856020860282011115610c5457600080fd5b60005b85811015610c845781610c6a8882610cf7565b845260208401935060208301925050600181019050610c57565b5050509392505050565b600081359050610c9d81611140565b92915050565b600082601f830112610cb457600080fd5b8151610cc4848260208601610c22565b91505092915050565b600081519050610cdc81611157565b92915050565b600081359050610cf18161116e565b92915050565b600081519050610d068161116e565b92915050565b600080600060608486031215610d2157600080fd5b6000610d2f86828701610c8e565b9350506020610d4086828701610c8e565b9250506040610d5186828701610ce2565b9150509250925092565b60008060008060808587031215610d7157600080fd5b6000610d7f87828801610c8e565b9450506020610d9087828801610c8e565b9350506040610da187828801610ce2565b9250506060610db287828801610c8e565b91505092959194509250565b600060208284031215610dd057600080fd5b600082015167ffffffffffffffff811115610dea57600080fd5b610df684828501610ca3565b91505092915050565b600060208284031215610e1157600080fd5b6000610e1f84828501610ccd565b91505092915050565b6000610e348383610e40565b60208301905092915050565b610e498161109a565b82525050565b610e588161109a565b82525050565b6000610e698261103d565b610e738185611055565b9350610e7e8361102d565b8060005b83811015610eaf578151610e968882610e28565b9750610ea183611048565b925050600181019050610e82565b5085935050505092915050565b610ec5816110d8565b82525050565b6000606082019050610ee06000830186610e4f565b610eed6020830185610e4f565b610efa6040830184610ebc565b949350505050565b6000604082019050610f176000830185610e4f565b610f246020830184610ebc565b9392505050565b6000602082019050610f406000830184610ebc565b92915050565b6000604082019050610f5b6000830185610ebc565b8181036020830152610f6d8184610e5e565b90509392505050565b600060a082019050610f8b6000830188610ebc565b610f986020830187610ebc565b8181036040830152610faa8186610e5e565b9050610fb96060830185610e4f565b610fc66080830184610ebc565b9695505050505050565b6000604051905081810181811067ffffffffffffffff82111715610ff757610ff6611111565b5b8060405250919050565b600067ffffffffffffffff82111561101c5761101b611111565b5b602082029050602081019050919050565b6000819050602082019050919050565b600081519050919050565b6000602082019050919050565b600082825260208201905092915050565b6000611071826110d8565b915061107c836110d8565b92508282101561108f5761108e6110e2565b5b828203905092915050565b60006110a5826110b8565b9050919050565b60008115159050919050565b600073ffffffffffffffffffffffffffffffffffffffff82169050919050565b6000819050919050565b7f4e487b7100000000000000000000000000000000000000000000000000000000600052601160045260246000fd5b7f4e487b7100000000000000000000000000000000000000000000000000000000600052604160045260246000fd5b6111498161109a565b811461115457600080fd5b50565b611160816110ac565b811461116b57600080fd5b50565b611177816110d8565b811461118257600080fd5b5056fea264697066735822122060aad2fc21eb07810a718c501f5a1d488699510950fb8cbcfb905931cf9b215b64736f6c63430008000033",
  "immutableReferences": {},
  "source": "// SPDX-License-Identifier: MIT\npragma solidity >=0.4.22 <0.9.0;\n\nimport \"./interfaces/IERC20.sol\";\nimport \"./interfaces/Uniswap.sol\";\n\ncontract TestUniswap {\n  \n    address private constant UNISWAP_V2_ROUTER =\n      0x7a250d5630B4cF539739dF2C5dAcb4c659F2488D;\n  address private constant WETH = 0xC02aaA39b223FE8D0A0e5C4F27eAD9083C756Cc2;\n\n  function swap(\n    address _tokenIn,\n    address _tokenOut,\n    uint _amountIn,\n    //uint _amountOutMin,\n    address _to\n  ) external {\n    IERC20(_tokenIn).transferFrom(msg.sender, address(this), _amountIn);\n    IERC20(_tokenIn).approve(UNISWAP_V2_ROUTER, _amountIn);\n\n    address[] memory path;\n    if (_tokenIn == WETH || _tokenOut == WETH) {\n      path = new address[](2);\n      path[0] = _tokenIn;\n      path[1] = _tokenOut;\n    } else {\n      path = new address[](3);\n      path[0] = _tokenIn;\n      path[1] = WETH;\n      path[2] = _tokenOut;\n    }\n   \n    uint[] memory amountOutMins =\n      IUniswapV2Router(UNISWAP_V2_ROUTER).getAmountsOut(_amountIn, path);\n\n    uint _amountOutMin = amountOutMins[path.length - 1];\n\n    IUniswapV2Router(UNISWAP_V2_ROUTER).swapExactTokensForTokens(\n      _amountIn,\n      _amountOutMin,\n      path,\n      _to,\n      block.timestamp\n    );\n  }\n\n  function getAmountOutMin(\n    address _tokenIn,\n    address _tokenOut,\n    uint _amountIn\n  ) external view returns (uint) {\n    address[] memory path;\n    if (_tokenIn == WETH || _tokenOut == WETH) {\n      path = new address[](2);\n      path[0] = _tokenIn;\n      path[1] = _tokenOut;\n    } else {\n      path = new address[](3);\n      path[0] = _tokenIn;\n      path[1] = WETH;\n      path[2] = _tokenOut;\n    }\n\n    // same length as path\n    uint[] memory amountOutMins =\n      IUniswapV2Router(UNISWAP_V2_ROUTER).getAmountsOut(_amountIn, path);\n\n    return amountOutMins[path.length - 1];\n  }\n}",
  "sourcePath": "/home/minhanh/blockchain/demo_hardhat/contracts/TestUniswap.sol",
  "compiler": {
    "name": "solc",
    "version": "0.8.0+commit.c7dfd78e.Emscripten.clang"
  },
  "schemaVersion": "3.4.7",
  "updatedAt": "2022-07-09T19:24:13.744Z",
  "devdoc": {
    "kind": "dev",
    "methods": {},
    "version": 1
  },
  "userdoc": {
    "kind": "user",
    "methods": {},
    "version": 1
  }
}