{
  "contractName": "TestUniswap",
  "abi": [
    {
      "inputs": [],
      "stateMutability": "payable",
      "type": "constructor",
      "payable": true
    },
    {
      "inputs": [],
      "name": "uniswapRouter",
      "outputs": [
        {
          "internalType": "contract IUniswapV2Router02",
          "name": "",
          "type": "address"
        }
      ],
      "stateMutability": "view",
      "type": "function",
      "constant": true
    },
    {
      "inputs": [
        {
          "internalType": "address",
          "name": "_tokenIn",
          "type": "address"
        },
        {
          "internalType": "address",
          "name": "_tokenOut",
          "type": "address"
        },
        {
          "internalType": "uint256",
          "name": "_amountIn",
          "type": "uint256"
        },
        {
          "internalType": "address",
          "name": "_to",
          "type": "address"
        }
      ],
      "name": "swap",
      "outputs": [],
      "stateMutability": "nonpayable",
      "type": "function"
    },
    {
      "inputs": [
        {
          "internalType": "address",
          "name": "_tokenIn",
          "type": "address"
        },
        {
          "internalType": "address",
          "name": "_tokenOut",
          "type": "address"
        },
        {
          "internalType": "uint256",
          "name": "_amountIn",
          "type": "uint256"
        }
      ],
      "name": "getAmountOutMin",
      "outputs": [
        {
          "internalType": "uint256",
          "name": "",
          "type": "uint256"
        }
      ],
      "stateMutability": "view",
      "type": "function",
      "constant": true
    },
    {
      "inputs": [
        {
          "internalType": "address",
          "name": "tokenOut",
          "type": "address"
        },
        {
          "internalType": "uint256",
          "name": "amountIn",
          "type": "uint256"
        }
      ],
      "name": "swapFromETHToToken",
      "outputs": [],
      "stateMutability": "payable",
      "type": "function",
      "payable": true
    },
    {
      "inputs": [
        {
          "internalType": "address",
          "name": "tokenIn",
          "type": "address"
        },
        {
          "internalType": "uint256",
          "name": "amountIn",
          "type": "uint256"
        }
      ],
      "name": "swapFromTokenToETH",
      "outputs": [],
      "stateMutability": "nonpayable",
      "type": "function"
    }
  ],
  "bytecode": "0x6080604052737a250d5630b4cf539739df2c5dacb4c659f2488d6000806101000a81548173ffffffffffffffffffffffffffffffffffffffff021916908373ffffffffffffffffffffffffffffffffffffffff160217905550611b0a806100676000396000f3fe60806040526004361061004a5760003560e01c80631b03873e1461004f5780633c50eec11461009d5780636cb8088f1461012c5780636e81221c14610187578063735de9f714610222575b600080fd5b61009b6004803603604081101561006557600080fd5b81019080803573ffffffffffffffffffffffffffffffffffffffff16906020019092919080359060200190929190505050610279565b005b3480156100a957600080fd5b50610116600480360360608110156100c057600080fd5b81019080803573ffffffffffffffffffffffffffffffffffffffff169060200190929190803573ffffffffffffffffffffffffffffffffffffffff16906020019092919080359060200190929190505050610774565b6040518082815260200191505060405180910390f35b34801561013857600080fd5b506101856004803603604081101561014f57600080fd5b81019080803573ffffffffffffffffffffffffffffffffffffffff16906020019092919080359060200190929190505050610bd7565b005b34801561019357600080fd5b50610220600480360360808110156101aa57600080fd5b81019080803573ffffffffffffffffffffffffffffffffffffffff169060200190929190803573ffffffffffffffffffffffffffffffffffffffff16906020019092919080359060200190929190803573ffffffffffffffffffffffffffffffffffffffff1690602001909291905050506112a7565b005b34801561022e57600080fd5b50610237611aaf565b604051808273ffffffffffffffffffffffffffffffffffffffff1673ffffffffffffffffffffffffffffffffffffffff16815260200191505060405180910390f35b6060600267ffffffffffffffff8111801561029357600080fd5b506040519080825280602002602001820160405280156102c25781602001602082028036833780820191505090505b5090506000809054906101000a900473ffffffffffffffffffffffffffffffffffffffff1673ffffffffffffffffffffffffffffffffffffffff1663ad5c46486040518163ffffffff1660e01b815260040160206040518083038186803b15801561032c57600080fd5b505afa158015610340573d6000803e3d6000fd5b505050506040513d602081101561035657600080fd5b81019080805190602001909291905050508160008151811061037457fe5b602002602001019073ffffffffffffffffffffffffffffffffffffffff16908173ffffffffffffffffffffffffffffffffffffffff168152505082816001815181106103bc57fe5b602002602001019073ffffffffffffffffffffffffffffffffffffffff16908173ffffffffffffffffffffffffffffffffffffffff168152505060008060009054906101000a900473ffffffffffffffffffffffffffffffffffffffff1673ffffffffffffffffffffffffffffffffffffffff1663d06ca61f84846040518363ffffffff1660e01b81526004018083815260200180602001828103825283818151815260200191508051906020019060200280838360005b8381101561048f578082015181840152602081019050610474565b50505050905001935050505060006040518083038186803b1580156104b357600080fd5b505afa1580156104c7573d6000803e3d6000fd5b505050506040513d6000823e3d601f19601f8201168201806040525060208110156104f157600080fd5b810190808051604051939291908464010000000082111561051157600080fd5b8382019150602082018581111561052757600080fd5b825186602082028301116401000000008211171561054457600080fd5b8083526020830192505050908051906020019060200280838360005b8381101561057b578082015181840152602081019050610560565b5050505090500160405250505060018151811061059457fe5b602002602001015190506000809054906101000a900473ffffffffffffffffffffffffffffffffffffffff1673ffffffffffffffffffffffffffffffffffffffff16637ff36ab534838533426040518663ffffffff1660e01b815260040180858152602001806020018473ffffffffffffffffffffffffffffffffffffffff1673ffffffffffffffffffffffffffffffffffffffff168152602001838152602001828103825285818151815260200191508051906020019060200280838360005b83811015610670578082015181840152602081019050610655565b50505050905001955050505050506000604051808303818588803b15801561069757600080fd5b505af11580156106ab573d6000803e3d6000fd5b50505050506040513d6000823e3d601f19601f8201168201806040525060208110156106d657600080fd5b81019080805160405193929190846401000000008211156106f657600080fd5b8382019150602082018581111561070c57600080fd5b825186602082028301116401000000008211171561072957600080fd5b8083526020830192505050908051906020019060200280838360005b83811015610760578082015181840152602081019050610745565b505050509050016040525050505050505050565b6000606073c02aaa39b223fe8d0a0e5c4f27ead9083c756cc273ffffffffffffffffffffffffffffffffffffffff168573ffffffffffffffffffffffffffffffffffffffff161480610805575073c02aaa39b223fe8d0a0e5c4f27ead9083c756cc273ffffffffffffffffffffffffffffffffffffffff168473ffffffffffffffffffffffffffffffffffffffff16145b156108e957600267ffffffffffffffff8111801561082257600080fd5b506040519080825280602002602001820160405280156108515781602001602082028036833780820191505090505b509050848160008151811061086257fe5b602002602001019073ffffffffffffffffffffffffffffffffffffffff16908173ffffffffffffffffffffffffffffffffffffffff168152505083816001815181106108aa57fe5b602002602001019073ffffffffffffffffffffffffffffffffffffffff16908173ffffffffffffffffffffffffffffffffffffffff1681525050610a20565b600367ffffffffffffffff8111801561090157600080fd5b506040519080825280602002602001820160405280156109305781602001602082028036833780820191505090505b509050848160008151811061094157fe5b602002602001019073ffffffffffffffffffffffffffffffffffffffff16908173ffffffffffffffffffffffffffffffffffffffff168152505073c02aaa39b223fe8d0a0e5c4f27ead9083c756cc28160018151811061099d57fe5b602002602001019073ffffffffffffffffffffffffffffffffffffffff16908173ffffffffffffffffffffffffffffffffffffffff168152505083816002815181106109e557fe5b602002602001019073ffffffffffffffffffffffffffffffffffffffff16908173ffffffffffffffffffffffffffffffffffffffff16815250505b60606000809054906101000a900473ffffffffffffffffffffffffffffffffffffffff1673ffffffffffffffffffffffffffffffffffffffff1663d06ca61f85846040518363ffffffff1660e01b81526004018083815260200180602001828103825283818151815260200191508051906020019060200280838360005b83811015610ab9578082015181840152602081019050610a9e565b50505050905001935050505060006040518083038186803b158015610add57600080fd5b505afa158015610af1573d6000803e3d6000fd5b505050506040513d6000823e3d601f19601f820116820180604052506020811015610b1b57600080fd5b8101908080516040519392919084640100000000821115610b3b57600080fd5b83820191506020820185811115610b5157600080fd5b8251866020820283011164010000000082111715610b6e57600080fd5b8083526020830192505050908051906020019060200280838360005b83811015610ba5578082015181840152602081019050610b8a565b50505050905001604052505050905080600183510381518110610bc457fe5b6020026020010151925050509392505050565b8173ffffffffffffffffffffffffffffffffffffffff166323b872dd3330846040518463ffffffff1660e01b8152600401808473ffffffffffffffffffffffffffffffffffffffff1673ffffffffffffffffffffffffffffffffffffffff1681526020018373ffffffffffffffffffffffffffffffffffffffff1673ffffffffffffffffffffffffffffffffffffffff1681526020018281526020019350505050602060405180830381600087803b158015610c9257600080fd5b505af1158015610ca6573d6000803e3d6000fd5b505050506040513d6020811015610cbc57600080fd5b8101908080519060200190929190505050508173ffffffffffffffffffffffffffffffffffffffff1663095ea7b3737a250d5630b4cf539739df2c5dacb4c659f2488d836040518363ffffffff1660e01b8152600401808373ffffffffffffffffffffffffffffffffffffffff1673ffffffffffffffffffffffffffffffffffffffff16815260200182815260200192505050602060405180830381600087803b158015610d6957600080fd5b505af1158015610d7d573d6000803e3d6000fd5b505050506040513d6020811015610d9357600080fd5b8101908080519060200190929190505050506060600267ffffffffffffffff81118015610dbf57600080fd5b50604051908082528060200260200182016040528015610dee5781602001602082028036833780820191505090505b5090508281600081518110610dff57fe5b602002602001019073ffffffffffffffffffffffffffffffffffffffff16908173ffffffffffffffffffffffffffffffffffffffff16815250506000809054906101000a900473ffffffffffffffffffffffffffffffffffffffff1673ffffffffffffffffffffffffffffffffffffffff1663ad5c46486040518163ffffffff1660e01b815260040160206040518083038186803b158015610ea057600080fd5b505afa158015610eb4573d6000803e3d6000fd5b505050506040513d6020811015610eca57600080fd5b810190808051906020019092919050505081600181518110610ee857fe5b602002602001019073ffffffffffffffffffffffffffffffffffffffff16908173ffffffffffffffffffffffffffffffffffffffff168152505060008060009054906101000a900473ffffffffffffffffffffffffffffffffffffffff1673ffffffffffffffffffffffffffffffffffffffff1663d06ca61f84846040518363ffffffff1660e01b81526004018083815260200180602001828103825283818151815260200191508051906020019060200280838360005b83811015610fbb578082015181840152602081019050610fa0565b50505050905001935050505060006040518083038186803b158015610fdf57600080fd5b505afa158015610ff3573d6000803e3d6000fd5b505050506040513d6000823e3d601f19601f82011682018060405250602081101561101d57600080fd5b810190808051604051939291908464010000000082111561103d57600080fd5b8382019150602082018581111561105357600080fd5b825186602082028301116401000000008211171561107057600080fd5b8083526020830192505050908051906020019060200280838360005b838110156110a757808201518184015260208101905061108c565b505050509050016040525050506001815181106110c057fe5b602002602001015190506000809054906101000a900473ffffffffffffffffffffffffffffffffffffffff1673ffffffffffffffffffffffffffffffffffffffff166318cbafe584838533426040518663ffffffff1660e01b815260040180868152602001858152602001806020018473ffffffffffffffffffffffffffffffffffffffff1673ffffffffffffffffffffffffffffffffffffffff168152602001838152602001828103825285818151815260200191508051906020019060200280838360005b838110156111a2578082015181840152602081019050611187565b505050509050019650505050505050600060405180830381600087803b1580156111cb57600080fd5b505af11580156111df573d6000803e3d6000fd5b505050506040513d6000823e3d601f19601f82011682018060405250602081101561120957600080fd5b810190808051604051939291908464010000000082111561122957600080fd5b8382019150602082018581111561123f57600080fd5b825186602082028301116401000000008211171561125c57600080fd5b8083526020830192505050908051906020019060200280838360005b83811015611293578082015181840152602081019050611278565b505050509050016040525050505050505050565b8373ffffffffffffffffffffffffffffffffffffffff166323b872dd3330856040518463ffffffff1660e01b8152600401808473ffffffffffffffffffffffffffffffffffffffff1673ffffffffffffffffffffffffffffffffffffffff1681526020018373ffffffffffffffffffffffffffffffffffffffff1673ffffffffffffffffffffffffffffffffffffffff1681526020018281526020019350505050602060405180830381600087803b15801561136257600080fd5b505af1158015611376573d6000803e3d6000fd5b505050506040513d602081101561138c57600080fd5b8101908080519060200190929190505050508373ffffffffffffffffffffffffffffffffffffffff1663095ea7b3737a250d5630b4cf539739df2c5dacb4c659f2488d846040518363ffffffff1660e01b8152600401808373ffffffffffffffffffffffffffffffffffffffff1673ffffffffffffffffffffffffffffffffffffffff16815260200182815260200192505050602060405180830381600087803b15801561143957600080fd5b505af115801561144d573d6000803e3d6000fd5b505050506040513d602081101561146357600080fd5b810190808051906020019092919050505050606073c02aaa39b223fe8d0a0e5c4f27ead9083c756cc273ffffffffffffffffffffffffffffffffffffffff168573ffffffffffffffffffffffffffffffffffffffff161480611504575073c02aaa39b223fe8d0a0e5c4f27ead9083c756cc273ffffffffffffffffffffffffffffffffffffffff168473ffffffffffffffffffffffffffffffffffffffff16145b156115e857600267ffffffffffffffff8111801561152157600080fd5b506040519080825280602002602001820160405280156115505781602001602082028036833780820191505090505b509050848160008151811061156157fe5b602002602001019073ffffffffffffffffffffffffffffffffffffffff16908173ffffffffffffffffffffffffffffffffffffffff168152505083816001815181106115a957fe5b602002602001019073ffffffffffffffffffffffffffffffffffffffff16908173ffffffffffffffffffffffffffffffffffffffff168152505061171f565b600367ffffffffffffffff8111801561160057600080fd5b5060405190808252806020026020018201604052801561162f5781602001602082028036833780820191505090505b509050848160008151811061164057fe5b602002602001019073ffffffffffffffffffffffffffffffffffffffff16908173ffffffffffffffffffffffffffffffffffffffff168152505073c02aaa39b223fe8d0a0e5c4f27ead9083c756cc28160018151811061169c57fe5b602002602001019073ffffffffffffffffffffffffffffffffffffffff16908173ffffffffffffffffffffffffffffffffffffffff168152505083816002815181106116e457fe5b602002602001019073ffffffffffffffffffffffffffffffffffffffff16908173ffffffffffffffffffffffffffffffffffffffff16815250505b60606000809054906101000a900473ffffffffffffffffffffffffffffffffffffffff1673ffffffffffffffffffffffffffffffffffffffff1663d06ca61f85846040518363ffffffff1660e01b81526004018083815260200180602001828103825283818151815260200191508051906020019060200280838360005b838110156117b857808201518184015260208101905061179d565b50505050905001935050505060006040518083038186803b1580156117dc57600080fd5b505afa1580156117f0573d6000803e3d6000fd5b505050506040513d6000823e3d601f19601f82011682018060405250602081101561181a57600080fd5b810190808051604051939291908464010000000082111561183a57600080fd5b8382019150602082018581111561185057600080fd5b825186602082028301116401000000008211171561186d57600080fd5b8083526020830192505050908051906020019060200280838360005b838110156118a4578082015181840152602081019050611889565b5050505090500160405250505090506000816001845103815181106118c557fe5b602002602001015190506000809054906101000a900473ffffffffffffffffffffffffffffffffffffffff1673ffffffffffffffffffffffffffffffffffffffff166338ed173986838688426040518663ffffffff1660e01b815260040180868152602001858152602001806020018473ffffffffffffffffffffffffffffffffffffffff1673ffffffffffffffffffffffffffffffffffffffff168152602001838152602001828103825285818151815260200191508051906020019060200280838360005b838110156119a757808201518184015260208101905061198c565b505050509050019650505050505050600060405180830381600087803b1580156119d057600080fd5b505af11580156119e4573d6000803e3d6000fd5b505050506040513d6000823e3d601f19601f820116820180604052506020811015611a0e57600080fd5b8101908080516040519392919084640100000000821115611a2e57600080fd5b83820191506020820185811115611a4457600080fd5b8251866020820283011164010000000082111715611a6157600080fd5b8083526020830192505050908051906020019060200280838360005b83811015611a98578082015181840152602081019050611a7d565b505050509050016040525050505050505050505050565b6000809054906101000a900473ffffffffffffffffffffffffffffffffffffffff168156fea2646970667358221220b922d962794e3bf8ff71f96d4eb97d3fee4e507b21c1610388b3cb8add76b5d164736f6c63430006060033",
  "immutableReferences": {},
  "source": "// SPDX-License-Identifier: MIT\npragma solidity >=0.4.22 <0.9.0;\n\n// import \"./interfaces/IERC20.sol\";\n// import \"./interfaces/Uniswap.sol\";\nimport '@uniswap/v2-periphery/contracts/UniswapV2Router02.sol';\n\ncontract TestUniswap {\n  \n  address internal constant UNISWAP_V2_ROUTER = 0x7a250d5630B4cF539739dF2C5dAcb4c659F2488D;\n    IUniswapV2Router02 public uniswapRouter;\n    // address private constant UNISWAP_V2_ROUTER =\n    //   0x7a250d5630B4cF539739dF2C5dAcb4c659F2488D;\n  address private constant WETH = 0xC02aaA39b223FE8D0A0e5C4F27eAD9083C756Cc2;\n  constructor() public payable {\n        uniswapRouter = IUniswapV2Router02(UNISWAP_V2_ROUTER);\n    }\n\n  function swap(\n    address _tokenIn,\n    address _tokenOut,\n    uint _amountIn,\n    //uint _amountOutMin,\n    address _to\n  ) external {\n    IERC20(_tokenIn).transferFrom(msg.sender, address(this), _amountIn);\n    IERC20(_tokenIn).approve(UNISWAP_V2_ROUTER, _amountIn);\n\n    address[] memory path;\n    if (_tokenIn == WETH || _tokenOut == WETH) {\n      path = new address[](2);\n      path[0] = _tokenIn;\n      path[1] = _tokenOut;\n    } else {\n      path = new address[](3);\n      path[0] = _tokenIn;\n      path[1] = WETH;\n      path[2] = _tokenOut;\n    }\n    uint[] memory amountOutMins =\n      uniswapRouter.getAmountsOut(_amountIn, path);\n\n    uint _amountOutMin = amountOutMins[path.length - 1];\n    uniswapRouter.swapExactTokensForTokens(\n      _amountIn,\n      _amountOutMin,\n      path,\n      _to,\n      block.timestamp\n    );\n  }\n\n  function getAmountOutMin(\n    address _tokenIn,\n    address _tokenOut,\n    uint _amountIn\n  ) external view returns (uint) {\n    address[] memory path;\n    if (_tokenIn == WETH || _tokenOut == WETH) {\n      path = new address[](2);\n      path[0] = _tokenIn;\n      path[1] = _tokenOut;\n    } else {\n      path = new address[](3);\n      path[0] = _tokenIn;\n      path[1] = WETH;\n      path[2] = _tokenOut;\n    }\n\n    // same length as path\n    uint[] memory amountOutMins =\n      uniswapRouter.getAmountsOut(_amountIn, path);\n\n    return amountOutMins[path.length - 1];\n  }\n\n  function swapFromETHToToken(\n    address tokenOut, //token trading out\n    uint256 amountIn\n    // uint256 amountOutMin, //min of token we want trade out\n    // address to\n     ) external payable{\n        address[] memory path;\n        path = new address[](2);\n        path[0]= uniswapRouter.WETH();\n        path[1]=tokenOut;\n\n        uint amountOutMin = uniswapRouter.getAmountsOut(amountIn, path)[1];\n        uniswapRouter.swapExactETHForTokens{value: msg.value}(amountOutMin,path,msg.sender,block.timestamp);\n    }\n\n  function swapFromTokenToETH(\n    address tokenIn,\n    uint256 amountIn\n    // uint256 amountOutMin,\n    // address to\n    ) external{\n      \n        IERC20(tokenIn).transferFrom(msg.sender,address(this),amountIn);\n        IERC20(tokenIn).approve(UNISWAP_V2_ROUTER,amountIn);\n        address[] memory path;\n          path = new address[](2);\n          path[0] = tokenIn;\n          path[1] = uniswapRouter.WETH();\n          \n           uint amountOutMin = uniswapRouter.getAmountsOut(amountIn, path)[1];\n    uniswapRouter.swapExactTokensForETH(amountIn,amountOutMin,path, msg.sender, block.timestamp);\n        }\n}",
  "sourcePath": "/home/minhanh/dex_gateway/contracts/TestUniswap.sol",
  "compiler": {
    "name": "solc",
    "version": "0.6.6+commit.6c089d02.Emscripten.clang"
  },
  "schemaVersion": "3.4.7",
  "updatedAt": "2022-07-11T18:44:49.647Z",
  "networkType": "ethereum",
  "devdoc": {
    "methods": {}
  },
  "userdoc": {
    "methods": {}
  }
}