{
  "contractName": "TestPancake",
  "abi": [
    {
      "inputs": [
        {
          "internalType": "address",
          "name": "_tokenIn",
          "type": "address"
        },
        {
          "internalType": "address",
          "name": "_tokenOut",
          "type": "address"
        },
        {
          "internalType": "uint256",
          "name": "_amountIn",
          "type": "uint256"
        },
        {
          "internalType": "uint256",
          "name": "_amountOutMin",
          "type": "uint256"
        },
        {
          "internalType": "address",
          "name": "_to",
          "type": "address"
        }
      ],
      "name": "swap",
      "outputs": [],
      "stateMutability": "nonpayable",
      "type": "function"
    }
  ],
  "bytecode": "0x608060405234801561001057600080fd5b50610abe806100206000396000f3fe608060405234801561001057600080fd5b506004361061002b5760003560e01c8063d5bcb9b514610030575b600080fd5b61004a600480360381019061004591906106f8565b61004c565b005b8473ffffffffffffffffffffffffffffffffffffffff166323b872dd3330866040518463ffffffff1660e01b81526004016100899392919061087c565b602060405180830381600087803b1580156100a357600080fd5b505af11580156100b7573d6000803e3d6000fd5b505050506040513d601f19601f820116820180604052508101906100db91906107b0565b508473ffffffffffffffffffffffffffffffffffffffff1663095ea7b37310ed43c718714eb63d5aa57b78b54704e256024e856040518363ffffffff1660e01b815260040161012b9291906108b3565b602060405180830381600087803b15801561014557600080fd5b505af1158015610159573d6000803e3d6000fd5b505050506040513d601f19601f8201168201806040525081019061017d91906107b0565b506060735da5da6933637c1cafa5de9fdf2acb1b3758c9e373ffffffffffffffffffffffffffffffffffffffff168673ffffffffffffffffffffffffffffffffffffffff16148061020d5750735da5da6933637c1cafa5de9fdf2acb1b3758c9e373ffffffffffffffffffffffffffffffffffffffff168573ffffffffffffffffffffffffffffffffffffffff16145b1561037357600267ffffffffffffffff811115610253577f4e487b7100000000000000000000000000000000000000000000000000000000600052604160045260246000fd5b6040519080825280602002602001820160405280156102815781602001602082028036833780820191505090505b50905085816000815181106102bf577f4e487b7100000000000000000000000000000000000000000000000000000000600052603260045260246000fd5b602002602001019073ffffffffffffffffffffffffffffffffffffffff16908173ffffffffffffffffffffffffffffffffffffffff16815250508481600181518110610334577f4e487b7100000000000000000000000000000000000000000000000000000000600052603260045260246000fd5b602002602001019073ffffffffffffffffffffffffffffffffffffffff16908173ffffffffffffffffffffffffffffffffffffffff1681525050610559565b600367ffffffffffffffff8111156103b4577f4e487b7100000000000000000000000000000000000000000000000000000000600052604160045260246000fd5b6040519080825280602002602001820160405280156103e25781602001602082028036833780820191505090505b5090508581600081518110610420577f4e487b7100000000000000000000000000000000000000000000000000000000600052603260045260246000fd5b602002602001019073ffffffffffffffffffffffffffffffffffffffff16908173ffffffffffffffffffffffffffffffffffffffff1681525050735da5da6933637c1cafa5de9fdf2acb1b3758c9e3816001815181106104a9577f4e487b7100000000000000000000000000000000000000000000000000000000600052603260045260246000fd5b602002602001019073ffffffffffffffffffffffffffffffffffffffff16908173ffffffffffffffffffffffffffffffffffffffff1681525050848160028151811061051e577f4e487b7100000000000000000000000000000000000000000000000000000000600052603260045260246000fd5b602002602001019073ffffffffffffffffffffffffffffffffffffffff16908173ffffffffffffffffffffffffffffffffffffffff16815250505b7310ed43c718714eb63d5aa57b78b54704e256024e73ffffffffffffffffffffffffffffffffffffffff166338ed173985858486426040518663ffffffff1660e01b81526004016105ae9594939291906108dc565b600060405180830381600087803b1580156105c857600080fd5b505af11580156105dc573d6000803e3d6000fd5b505050506040513d6000823e3d601f19601f82011682018060405250810190610605919061076f565b50505050505050565b600061062161061c84610967565b610936565b9050808382526020820190508285602086028201111561064057600080fd5b60005b85811015610670578161065688826106e3565b845260208401935060208301925050600181019050610643565b5050509392505050565b60008135905061068981610a43565b92915050565b600082601f8301126106a057600080fd5b81516106b084826020860161060e565b91505092915050565b6000815190506106c881610a5a565b92915050565b6000813590506106dd81610a71565b92915050565b6000815190506106f281610a71565b92915050565b600080600080600060a0868803121561071057600080fd5b600061071e8882890161067a565b955050602061072f8882890161067a565b9450506040610740888289016106ce565b9350506060610751888289016106ce565b92505060806107628882890161067a565b9150509295509295909350565b60006020828403121561078157600080fd5b600082015167ffffffffffffffff81111561079b57600080fd5b6107a78482850161068f565b91505092915050565b6000602082840312156107c257600080fd5b60006107d0848285016106b9565b91505092915050565b60006107e583836107f1565b60208301905092915050565b6107fa816109cc565b82525050565b610809816109cc565b82525050565b600061081a826109a3565b61082481856109bb565b935061082f83610993565b8060005b8381101561086057815161084788826107d9565b9750610852836109ae565b925050600181019050610833565b5085935050505092915050565b61087681610a0a565b82525050565b60006060820190506108916000830186610800565b61089e6020830185610800565b6108ab604083018461086d565b949350505050565b60006040820190506108c86000830185610800565b6108d5602083018461086d565b9392505050565b600060a0820190506108f1600083018861086d565b6108fe602083018761086d565b8181036040830152610910818661080f565b905061091f6060830185610800565b61092c608083018461086d565b9695505050505050565b6000604051905081810181811067ffffffffffffffff8211171561095d5761095c610a14565b5b8060405250919050565b600067ffffffffffffffff82111561098257610981610a14565b5b602082029050602081019050919050565b6000819050602082019050919050565b600081519050919050565b6000602082019050919050565b600082825260208201905092915050565b60006109d7826109ea565b9050919050565b60008115159050919050565b600073ffffffffffffffffffffffffffffffffffffffff82169050919050565b6000819050919050565b7f4e487b7100000000000000000000000000000000000000000000000000000000600052604160045260246000fd5b610a4c816109cc565b8114610a5757600080fd5b50565b610a63816109de565b8114610a6e57600080fd5b50565b610a7a81610a0a565b8114610a8557600080fd5b5056fea264697066735822122013ec14df4b967af7e587e00047f498973ab643decae1d2de617e62f4ef6b103664736f6c63430008000033",
  "immutableReferences": {},
  "source": "// SPDX-License-Identifier: MIT\npragma solidity >=0.4.22 <0.9.0;\n\nimport \"./interfaces/IERC20.sol\";\nimport \"./interfaces/Pancake.sol\";\n\n\ncontract TestPancake{\n    address private constant PANCAKE_ROUTER =\n      0x10ED43C718714eb63d5aA57B78B54704E256024E;\n\n    address private constant FACTORY = 0xcA143Ce32Fe78f1f7019d7d551a6402fC5350c73;\n\n    address private constant WETH = 0x5DA5DA6933637c1cAfa5de9FdF2aCb1B3758C9e3;\n\n\n    function swap(\n    address _tokenIn,\n    address _tokenOut,\n    uint _amountIn,\n    uint _amountOutMin,\n    address _to\n  ) external {\n    IERC20(_tokenIn).transferFrom(msg.sender, address(this), _amountIn);\n    IERC20(_tokenIn).approve(PANCAKE_ROUTER, _amountIn);\n\n    address[] memory path;\n\n     if (_tokenIn == WETH || _tokenOut == WETH) {\n      path = new address[](2);\n      path[0] = _tokenIn;\n      path[1] = _tokenOut;\n    } else {\n      path = new address[](3);\n      path[0] = _tokenIn;\n      path[1] = WETH;\n      path[2] = _tokenOut;\n    }\n\n     IPancakeRouter02(PANCAKE_ROUTER).swapExactTokensForTokens(\n      _amountIn,\n      _amountOutMin,\n      path,\n      _to,\n      block.timestamp\n    );\n\n  }\n}",
  "sourcePath": "/home/minhanh/blockchain/demo_hardhat/contracts/TestPancake.sol",
  "compiler": {
    "name": "solc",
    "version": "0.8.0+commit.c7dfd78e.Emscripten.clang"
  },
  "schemaVersion": "3.4.7",
  "updatedAt": "2022-07-10T13:30:46.492Z",
  "networkType": "ethereum",
  "devdoc": {
    "kind": "dev",
    "methods": {},
    "version": 1
  },
  "userdoc": {
    "kind": "user",
    "methods": {},
    "version": 1
  }
}