{
  "contractName": "TestUniswap",
  "abi": [
    {
      "inputs": [
        {
          "internalType": "address",
          "name": "token",
          "type": "address"
        },
        {
          "internalType": "uint256",
          "name": "ethAmount",
          "type": "uint256"
        }
      ],
      "name": "swapEthforToken",
      "outputs": [],
      "stateMutability": "payable",
      "type": "function",
      "payable": true
    },
    {
      "inputs": [
        {
          "internalType": "address",
          "name": "token",
          "type": "address"
        },
        {
          "internalType": "uint256",
          "name": "tokenAmount",
          "type": "uint256"
        }
      ],
      "name": "swapTokenforEth",
      "outputs": [],
      "stateMutability": "payable",
      "type": "function",
      "payable": true
    },
    {
      "inputs": [
        {
          "internalType": "address",
          "name": "_tokenIn",
          "type": "address"
        },
        {
          "internalType": "address",
          "name": "_tokenOut",
          "type": "address"
        },
        {
          "internalType": "uint256",
          "name": "_amountIn",
          "type": "uint256"
        },
        {
          "internalType": "address",
          "name": "_to",
          "type": "address"
        }
      ],
      "name": "swap",
      "outputs": [],
      "stateMutability": "nonpayable",
      "type": "function"
    },
    {
      "inputs": [
        {
          "internalType": "address",
          "name": "_tokenIn",
          "type": "address"
        },
        {
          "internalType": "address",
          "name": "_tokenOut",
          "type": "address"
        },
        {
          "internalType": "uint256",
          "name": "_amountIn",
          "type": "uint256"
        }
      ],
      "name": "getAmountOutMin",
      "outputs": [
        {
          "internalType": "uint256",
          "name": "",
          "type": "uint256"
        }
      ],
      "stateMutability": "view",
      "type": "function",
      "constant": true
    }
  ],
  "bytecode": "0x608060405234801561001057600080fd5b50611a65806100206000396000f3fe60806040526004361061003f5760003560e01c80633c50eec11461004457806365ca91db146100815780636e81221c1461009d57806385a402a9146100c6575b600080fd5b34801561005057600080fd5b5061006b600480360381019061006691906114d8565b6100e2565b6040516100789190611733565b60405180910390f35b61009b6004803603810190610096919061158a565b6105c0565b005b3480156100a957600080fd5b506100c460048036038101906100bf9190611527565b6108df565b005b6100e060048036038101906100db919061158a565b610f9c565b005b6000606073c02aaa39b223fe8d0a0e5c4f27ead9083c756cc273ffffffffffffffffffffffffffffffffffffffff168573ffffffffffffffffffffffffffffffffffffffff161480610173575073c02aaa39b223fe8d0a0e5c4f27ead9083c756cc273ffffffffffffffffffffffffffffffffffffffff168473ffffffffffffffffffffffffffffffffffffffff16145b156102d957600267ffffffffffffffff8111156101b9577f4e487b7100000000000000000000000000000000000000000000000000000000600052604160045260246000fd5b6040519080825280602002602001820160405280156101e75781602001602082028036833780820191505090505b5090508481600081518110610225577f4e487b7100000000000000000000000000000000000000000000000000000000600052603260045260246000fd5b602002602001019073ffffffffffffffffffffffffffffffffffffffff16908173ffffffffffffffffffffffffffffffffffffffff1681525050838160018151811061029a577f4e487b7100000000000000000000000000000000000000000000000000000000600052603260045260246000fd5b602002602001019073ffffffffffffffffffffffffffffffffffffffff16908173ffffffffffffffffffffffffffffffffffffffff16815250506104bf565b600367ffffffffffffffff81111561031a577f4e487b7100000000000000000000000000000000000000000000000000000000600052604160045260246000fd5b6040519080825280602002602001820160405280156103485781602001602082028036833780820191505090505b5090508481600081518110610386577f4e487b7100000000000000000000000000000000000000000000000000000000600052603260045260246000fd5b602002602001019073ffffffffffffffffffffffffffffffffffffffff16908173ffffffffffffffffffffffffffffffffffffffff168152505073c02aaa39b223fe8d0a0e5c4f27ead9083c756cc28160018151811061040f577f4e487b7100000000000000000000000000000000000000000000000000000000600052603260045260246000fd5b602002602001019073ffffffffffffffffffffffffffffffffffffffff16908173ffffffffffffffffffffffffffffffffffffffff16815250508381600281518110610484577f4e487b7100000000000000000000000000000000000000000000000000000000600052603260045260246000fd5b602002602001019073ffffffffffffffffffffffffffffffffffffffff16908173ffffffffffffffffffffffffffffffffffffffff16815250505b6000737a250d5630b4cf539739df2c5dacb4c659f2488d73ffffffffffffffffffffffffffffffffffffffff1663d06ca61f85846040518363ffffffff1660e01b815260040161051092919061174e565b60006040518083038186803b15801561052857600080fd5b505afa15801561053c573d6000803e3d6000fd5b505050506040513d6000823e3d601f19601f8201168201806040525081019061056591906115c6565b905080600183516105769190611910565b815181106105ad577f4e487b7100000000000000000000000000000000000000000000000000000000600052603260045260246000fd5b6020026020010151925050509392505050565b60006096426105cf91906118ba565b90506000600267ffffffffffffffff811115610614577f4e487b7100000000000000000000000000000000000000000000000000000000600052604160045260246000fd5b6040519080825280602002602001820160405280156106425781602001602082028036833780820191505090505b50905073c02aaa39b223fe8d0a0e5c4f27ead9083c756cc281600081518110610694577f4e487b7100000000000000000000000000000000000000000000000000000000600052603260045260246000fd5b602002602001019073ffffffffffffffffffffffffffffffffffffffff16908173ffffffffffffffffffffffffffffffffffffffff16815250508381600181518110610709577f4e487b7100000000000000000000000000000000000000000000000000000000600052603260045260246000fd5b602002602001019073ffffffffffffffffffffffffffffffffffffffff16908173ffffffffffffffffffffffffffffffffffffffff16815250506000737a250d5630b4cf539739df2c5dacb4c659f2488d73ffffffffffffffffffffffffffffffffffffffff1663d06ca61f85846040518363ffffffff1660e01b815260040161079492919061174e565b60006040518083038186803b1580156107ac57600080fd5b505afa1580156107c0573d6000803e3d6000fd5b505050506040513d6000823e3d601f19601f820116820180604052508101906107e991906115c6565b600181518110610822577f4e487b7100000000000000000000000000000000000000000000000000000000600052603260045260246000fd5b60200260200101519050737a250d5630b4cf539739df2c5dacb4c659f2488d73ffffffffffffffffffffffffffffffffffffffff16637ff36ab534838533886040518663ffffffff1660e01b8152600401610880949392919061177e565b6000604051808303818588803b15801561089957600080fd5b505af11580156108ad573d6000803e3d6000fd5b50505050506040513d6000823e3d601f19601f820116820180604052508101906108d791906115c6565b505050505050565b8373ffffffffffffffffffffffffffffffffffffffff166323b872dd3330856040518463ffffffff1660e01b815260040161091c939291906116d3565b602060405180830381600087803b15801561093657600080fd5b505af115801561094a573d6000803e3d6000fd5b505050506040513d601f19601f8201168201806040525081019061096e9190611607565b508373ffffffffffffffffffffffffffffffffffffffff1663095ea7b3737a250d5630b4cf539739df2c5dacb4c659f2488d846040518363ffffffff1660e01b81526004016109be92919061170a565b602060405180830381600087803b1580156109d857600080fd5b505af11580156109ec573d6000803e3d6000fd5b505050506040513d601f19601f82011682018060405250810190610a109190611607565b50606073c02aaa39b223fe8d0a0e5c4f27ead9083c756cc273ffffffffffffffffffffffffffffffffffffffff168573ffffffffffffffffffffffffffffffffffffffff161480610aa0575073c02aaa39b223fe8d0a0e5c4f27ead9083c756cc273ffffffffffffffffffffffffffffffffffffffff168473ffffffffffffffffffffffffffffffffffffffff16145b15610c0657600267ffffffffffffffff811115610ae6577f4e487b7100000000000000000000000000000000000000000000000000000000600052604160045260246000fd5b604051908082528060200260200182016040528015610b145781602001602082028036833780820191505090505b5090508481600081518110610b52577f4e487b7100000000000000000000000000000000000000000000000000000000600052603260045260246000fd5b602002602001019073ffffffffffffffffffffffffffffffffffffffff16908173ffffffffffffffffffffffffffffffffffffffff16815250508381600181518110610bc7577f4e487b7100000000000000000000000000000000000000000000000000000000600052603260045260246000fd5b602002602001019073ffffffffffffffffffffffffffffffffffffffff16908173ffffffffffffffffffffffffffffffffffffffff1681525050610dec565b600367ffffffffffffffff811115610c47577f4e487b7100000000000000000000000000000000000000000000000000000000600052604160045260246000fd5b604051908082528060200260200182016040528015610c755781602001602082028036833780820191505090505b5090508481600081518110610cb3577f4e487b7100000000000000000000000000000000000000000000000000000000600052603260045260246000fd5b602002602001019073ffffffffffffffffffffffffffffffffffffffff16908173ffffffffffffffffffffffffffffffffffffffff168152505073c02aaa39b223fe8d0a0e5c4f27ead9083c756cc281600181518110610d3c577f4e487b7100000000000000000000000000000000000000000000000000000000600052603260045260246000fd5b602002602001019073ffffffffffffffffffffffffffffffffffffffff16908173ffffffffffffffffffffffffffffffffffffffff16815250508381600281518110610db1577f4e487b7100000000000000000000000000000000000000000000000000000000600052603260045260246000fd5b602002602001019073ffffffffffffffffffffffffffffffffffffffff16908173ffffffffffffffffffffffffffffffffffffffff16815250505b6000737a250d5630b4cf539739df2c5dacb4c659f2488d73ffffffffffffffffffffffffffffffffffffffff1663d06ca61f85846040518363ffffffff1660e01b8152600401610e3d92919061174e565b60006040518083038186803b158015610e5557600080fd5b505afa158015610e69573d6000803e3d6000fd5b505050506040513d6000823e3d601f19601f82011682018060405250810190610e9291906115c6565b905060008160018451610ea59190611910565b81518110610edc577f4e487b7100000000000000000000000000000000000000000000000000000000600052603260045260246000fd5b60200260200101519050737a250d5630b4cf539739df2c5dacb4c659f2488d73ffffffffffffffffffffffffffffffffffffffff166338ed173986838688426040518663ffffffff1660e01b8152600401610f3b9594939291906117ca565b600060405180830381600087803b158015610f5557600080fd5b505af1158015610f69573d6000803e3d6000fd5b505050506040513d6000823e3d601f19601f82011682018060405250810190610f9291906115c6565b5050505050505050565b6000609642610fab91906118ba565b90506000600267ffffffffffffffff811115610ff0577f4e487b7100000000000000000000000000000000000000000000000000000000600052604160045260246000fd5b60405190808252806020026020018201604052801561101e5781602001602082028036833780820191505090505b509050838160008151811061105c577f4e487b7100000000000000000000000000000000000000000000000000000000600052603260045260246000fd5b602002602001019073ffffffffffffffffffffffffffffffffffffffff16908173ffffffffffffffffffffffffffffffffffffffff168152505073c02aaa39b223fe8d0a0e5c4f27ead9083c756cc2816001815181106110e5577f4e487b7100000000000000000000000000000000000000000000000000000000600052603260045260246000fd5b602002602001019073ffffffffffffffffffffffffffffffffffffffff16908173ffffffffffffffffffffffffffffffffffffffff16815250506000737a250d5630b4cf539739df2c5dacb4c659f2488d73ffffffffffffffffffffffffffffffffffffffff1663d06ca61f85846040518363ffffffff1660e01b815260040161117092919061174e565b60006040518083038186803b15801561118857600080fd5b505afa15801561119c573d6000803e3d6000fd5b505050506040513d6000823e3d601f19601f820116820180604052508101906111c591906115c6565b6001815181106111fe577f4e487b7100000000000000000000000000000000000000000000000000000000600052603260045260246000fd5b602002602001015190508473ffffffffffffffffffffffffffffffffffffffff166323b872dd3330876040518463ffffffff1660e01b8152600401611245939291906116d3565b602060405180830381600087803b15801561125f57600080fd5b505af1158015611273573d6000803e3d6000fd5b505050506040513d601f19601f820116820180604052508101906112979190611607565b508473ffffffffffffffffffffffffffffffffffffffff1663095ea7b3737a250d5630b4cf539739df2c5dacb4c659f2488d866040518363ffffffff1660e01b81526004016112e792919061170a565b602060405180830381600087803b15801561130157600080fd5b505af1158015611315573d6000803e3d6000fd5b505050506040513d601f19601f820116820180604052508101906113399190611607565b50737a250d5630b4cf539739df2c5dacb4c659f2488d73ffffffffffffffffffffffffffffffffffffffff166318cbafe585838533886040518663ffffffff1660e01b815260040161138f9594939291906117ca565b600060405180830381600087803b1580156113a957600080fd5b505af11580156113bd573d6000803e3d6000fd5b505050506040513d6000823e3d601f19601f820116820180604052508101906113e691906115c6565b505050505050565b60006114016113fc84611855565b611824565b9050808382526020820190508285602086028201111561142057600080fd5b60005b85811015611450578161143688826114c3565b845260208401935060208301925050600181019050611423565b5050509392505050565b600081359050611469816119ea565b92915050565b600082601f83011261148057600080fd5b81516114908482602086016113ee565b91505092915050565b6000815190506114a881611a01565b92915050565b6000813590506114bd81611a18565b92915050565b6000815190506114d281611a18565b92915050565b6000806000606084860312156114ed57600080fd5b60006114fb8682870161145a565b935050602061150c8682870161145a565b925050604061151d868287016114ae565b9150509250925092565b6000806000806080858703121561153d57600080fd5b600061154b8782880161145a565b945050602061155c8782880161145a565b935050604061156d878288016114ae565b925050606061157e8782880161145a565b91505092959194509250565b6000806040838503121561159d57600080fd5b60006115ab8582860161145a565b92505060206115bc858286016114ae565b9150509250929050565b6000602082840312156115d857600080fd5b600082015167ffffffffffffffff8111156115f257600080fd5b6115fe8482850161146f565b91505092915050565b60006020828403121561161957600080fd5b600061162784828501611499565b91505092915050565b600061163c8383611648565b60208301905092915050565b61165181611944565b82525050565b61166081611944565b82525050565b600061167182611891565b61167b81856118a9565b935061168683611881565b8060005b838110156116b757815161169e8882611630565b97506116a98361189c565b92505060018101905061168a565b5085935050505092915050565b6116cd81611982565b82525050565b60006060820190506116e86000830186611657565b6116f56020830185611657565b61170260408301846116c4565b949350505050565b600060408201905061171f6000830185611657565b61172c60208301846116c4565b9392505050565b600060208201905061174860008301846116c4565b92915050565b600060408201905061176360008301856116c4565b81810360208301526117758184611666565b90509392505050565b600060808201905061179360008301876116c4565b81810360208301526117a58186611666565b90506117b46040830185611657565b6117c160608301846116c4565b95945050505050565b600060a0820190506117df60008301886116c4565b6117ec60208301876116c4565b81810360408301526117fe8186611666565b905061180d6060830185611657565b61181a60808301846116c4565b9695505050505050565b6000604051905081810181811067ffffffffffffffff8211171561184b5761184a6119bb565b5b8060405250919050565b600067ffffffffffffffff8211156118705761186f6119bb565b5b602082029050602081019050919050565b6000819050602082019050919050565b600081519050919050565b6000602082019050919050565b600082825260208201905092915050565b60006118c582611982565b91506118d083611982565b9250827fffffffffffffffffffffffffffffffffffffffffffffffffffffffffffffffff038211156119055761190461198c565b5b828201905092915050565b600061191b82611982565b915061192683611982565b9250828210156119395761193861198c565b5b828203905092915050565b600061194f82611962565b9050919050565b60008115159050919050565b600073ffffffffffffffffffffffffffffffffffffffff82169050919050565b6000819050919050565b7f4e487b7100000000000000000000000000000000000000000000000000000000600052601160045260246000fd5b7f4e487b7100000000000000000000000000000000000000000000000000000000600052604160045260246000fd5b6119f381611944565b81146119fe57600080fd5b50565b611a0a81611956565b8114611a1557600080fd5b50565b611a2181611982565b8114611a2c57600080fd5b5056fea264697066735822122097606fb884e182883ac7d21a5f82ae7257c4e93c929aacbd02c9c94a9d4197ce64736f6c63430008000033",
  "immutableReferences": {},
  "source": "// SPDX-License-Identifier: MIT\npragma solidity >=0.4.22 <0.9.0;\n\nimport \"./interfaces/IERC20.sol\";\nimport \"./interfaces/Uniswap.sol\";\n\n\ncontract TestUniswap {\n  \n    address private constant UNISWAP_V2_ROUTER =\n      0x7a250d5630B4cF539739dF2C5dAcb4c659F2488D;\n  address private constant WETH = 0xC02aaA39b223FE8D0A0e5C4F27eAD9083C756Cc2;\n  \n  function swapEthforToken(address token, uint ethAmount) external payable{\n    uint deadline = block.timestamp + 150;\n\n    address[] memory path = new address[](2);\n        path[0] = WETH;\n        path[1] = token;\n\n    uint amountOutMin = IUniswapV2Router(UNISWAP_V2_ROUTER).getAmountsOut(ethAmount, path)[1];\n    IUniswapV2Router(UNISWAP_V2_ROUTER).swapExactETHForTokens{value: msg.value}(amountOutMin, path, msg.sender, deadline);\n  }\n\n  function swapTokenforEth(address token, uint tokenAmount) external payable{\n    uint deadline = block.timestamp + 150;\n    address[] memory path = new address[](2);\n        path[0] = token;\n        path[1] = WETH;\n\n    uint amountOutMin = IUniswapV2Router(UNISWAP_V2_ROUTER).getAmountsOut(tokenAmount, path)[1];\n        IERC20(token).transferFrom(msg.sender, address(this), tokenAmount);\n        IERC20(token).approve(UNISWAP_V2_ROUTER, tokenAmount);\n        IUniswapV2Router(UNISWAP_V2_ROUTER).swapExactTokensForETH(tokenAmount, amountOutMin, path, msg.sender, deadline);\n    \n  }\n\n\n  function swap(\n    address _tokenIn,\n    address _tokenOut,\n    uint _amountIn,\n    //uint _amountOutMin,\n    address _to\n  ) external {\n    IERC20(_tokenIn).transferFrom(msg.sender, address(this), _amountIn);\n    IERC20(_tokenIn).approve(UNISWAP_V2_ROUTER, _amountIn);\n\n    address[] memory path;\n    if (_tokenIn == WETH || _tokenOut == WETH) {\n      path = new address[](2);\n      path[0] = _tokenIn;\n      path[1] = _tokenOut;\n    } else {\n      path = new address[](3);\n      path[0] = _tokenIn;\n      path[1] = WETH;\n      path[2] = _tokenOut;\n    }\n   \n    uint[] memory amountOutMins =\n      IUniswapV2Router(UNISWAP_V2_ROUTER).getAmountsOut(_amountIn, path);\n\n    uint _amountOutMin = amountOutMins[path.length - 1];\n\n\n\n    IUniswapV2Router(UNISWAP_V2_ROUTER).swapExactTokensForTokens(\n      _amountIn,\n      _amountOutMin,\n      path,\n      _to,\n      block.timestamp\n    );\n  }\n\n  function getAmountOutMin(\n    address _tokenIn,\n    address _tokenOut,\n    uint _amountIn\n  ) external view returns (uint) {\n    address[] memory path;\n    if (_tokenIn == WETH || _tokenOut == WETH) {\n      path = new address[](2);\n      path[0] = _tokenIn;\n      path[1] = _tokenOut;\n    } else {\n      path = new address[](3);\n      path[0] = _tokenIn;\n      path[1] = WETH;\n      path[2] = _tokenOut;\n    }\n\n    // same length as path\n    uint[] memory amountOutMins =\n      IUniswapV2Router(UNISWAP_V2_ROUTER).getAmountsOut(_amountIn, path);\n\n    return amountOutMins[path.length - 1];\n  }\n}",
  "sourcePath": "/home/minhanh/blockchain/demo_hardhat/contracts/TestUniswap.sol",
  "compiler": {
    "name": "solc",
    "version": "0.8.0+commit.c7dfd78e.Emscripten.clang"
  },
  "schemaVersion": "3.4.7",
  "updatedAt": "2022-07-10T09:34:59.180Z",
  "networkType": "ethereum",
  "devdoc": {
    "kind": "dev",
    "methods": {},
    "version": 1
  },
  "userdoc": {
    "kind": "user",
    "methods": {},
    "version": 1
  }
}